S016000063616E2D6272696467652D6363732E73726563DC
S1130000FDC0000016C10000E4C7000012C10000DA
S113001010C100000EC100000CC100000AC10000A4
S113002008C1000006C1000004C1000002C10000B4
S113003000C10000FEC0000027C60000FAC0000096
S1130040F8C00000F6C00000F4C00000F2C00000D8
S11300500C943508EEC00000ECC00000EAC00000BB
S1130060E8C00000E6C00000E4C00000E2C00000F8
S1130070E0C00000DEC00000DCC00000DAC0000008
S1130080D8C00000D6C00000D4C00000D2C0000018
S1130090D0C00000CEC00000CCC00000CAC0000028
S11300A0C8C00000C6C00000C4C00000C2C0000038
S11300B0C0C00000BEC00000BCC00000BAC0000048
S11300C0B8C00000B6C00000B4C00000B2C0000058
S11300D0B0C00000AEC00000ACC00000AAC0000068
S11300E0A8C00000A6C00000A4C00000A2C0000078
S11300F0A0C000009EC000009CC000009AC0000088
S11301001BC700003FC7000094C0000092C000005D
S113011090C000008EC000008CC000008AC00000A7
S113012088C0000086C0000084C0000082C00000B7
S113013080C000007EC000007CC000007AC00000C7
S113014078C0000076C0000074C0000072C00000D7
S113015070C000006EC000006CC000006AC00000E7
S113016068C0000066C0000064C0000062C00000F7
S113017060C000005EC000005CC000005AC0000007
S113018058C0000056C0000054C0000052C0000017
S113019050C000004EC000004CC000004AC0000027
S11301A048C0000046C0000044C0000042C0000037
S11301B040C000003EC000003CC000003AC0000047
S11301C038C0000036C0000034C0000032C0000057
S11301D030C000002EC000002CC000002AC0000067
S11301E028C0000026C0000024C0000022C0000077
S11301F020C0000058C100001CC0000011241FBE14
S1130200CFEFCDBFDFE2DEBF10E2A0E0B0E2E8EB6B
S1130210F0E102C005900D92A430B107D9F724E2B1
S1130220A4E0B0E201C01D92AC39B207E1F728D5D1
S113023041C7E6CE089580931C20282F2F7030E00C
S11302404091C6045091C7048823E4F464E8629F93
S1130250C001639F900D1124815A9F4D80931820F3
S113026090931920C90182959295907F9827807F59
S1130270982708969A01280F391F20931A20309343
S11302801B20089564E8629FC001639F900D1124B0
S1130290835E9F4D80931820909319202295329568
S11302A0307F3227207F3227240F351F20931A20D6
S11302B030931B2008951F93CF93DF93D82F162FCD
S11302C0C42FB9DFE0911A20F0911B201182E09134
S11302D01A20F0911B20DD23A4F01082E0911A2053
S11302E0F0911B201183E0911A20F0911B201282BF
S11302F0138280911820909119208483958340E083
S113030014C082E08083E0911A20F0911B201183B5
S1130310E0911A20F0911B20128213828091182000
S113032090911920848395834C2FFC01E05CFF4F4E
S113033040833196108281E0DF91CF911F9108951F
S113034020E030E0A0ECB4E01696ED91FC91179714
S1130350C90182959295907F9827807F9827E80F0E
S1130360F91F118616964D915C911797FA01E80FC3
S1130370F91F11822F5F3F4F2530310529F708956A
S11303808091042380FF04C088E38093440002C06A
S1130390109244008091042383FF06C0E0E4F0E05F
S11303A084818160848305C0E0E4F0E0848183601B
S11303B084836CD072D0E0ECF4E080818F7780830A
S11303C080818068808310920F2010920B201092FD
S11303D00D2010920C208091042380FF04C08081A2
S11303E08F7B808305C0E0ECF4E0808180648083AF
S11303F048E068E480E85FDF48E068E480E05BDFD1
S1130400E0ECF4E080858064808781818160818371
S11304100895CF93DF93809304232FB7F894C0EC0F
S1130420D1E082E08A87EAE1F0E0E491A0ECB4E074
S1130430DA96EC93DA97EBE1F0E0E491DB96EC9357
S1130440DB971A8682EB92E28E7F16968D939C93AD
S1130450179784E18C938091042382FF04C083E086
S11304608093C8040BC08091042381FF04C082E000
S11304708093C80403C081E08093C8042FBF81E047
S113048080930E207DDFDF91CF910895E0ECF4E0BE
S113049080858370808711860895E0ECF4E08FEF07
S11304A08287848708951F920F920FB60F921124AA
S11304B02F933F934F935F936F937F938F939F9368
S11304C0AF93BF93EF93FF938091CA04882344F4BE
S11304D08091C804882324F480E88093CA04AADEA7
S11304E08091CA0486FF06C080E48093CA041092F7
S11304F00F20C8D38091CA0485FF15C080E2809381
S1130500CA0480910B20882321F084E080930F207B
S113051009C08091C304811102C081E001C083E05D
S113052080930F20B0D38091CA0484FF14C0E0EC00
S1130530F4E080E1828782E080930F2010920B2008
S11305401382FEDE48E068E480E8B5DE48E068E453
S113055080E0B1DE6FDEFF91EF91BF91AF919F918B
S11305608F917F916F915F914F913F912F910F9058
S11305700FBE0F901F901895E0ECF8E092819283E3
S1130580838382818823ECF78091C30808951F93A5
S1130590CF93DF93C0E4D6E010E11E8380ECECDF60
S11305A01D83DF91CF911F9108951F93CF93DF9304
S11305B0C0E6D6E010E11E8380ECDEDF1D83DF9110
S11305C0CF911F9108951F93CF93DF93C0E2D6E09C
S11305D018E01E8380ECD0DF1D83DF91CF911F9143
S11305E008951F93CF93DF93182FD62FC42F85E040
S11305F0C3DF812FC1DF8D2FBFDF8C2FBDDFDF91E4
S1130600CF911F9108951F93CF93DF93213039F435
S1130610C0E4D6E010E11E83E4DF1D8311C0223064
S113062039F4C0E6D6E010E11E83DBDF1D8308C089
S1130630233031F4C0E2D6E018E01E83D2DF1D83FC
S1130640DF91CF911F9108951F93CF93DF93C0E45F
S1130650D6E010E11E83C5DF1D83DF91CF911F918A
S113066008951F93CF93DF93C0E6D6E010E11E8375
S1130670B8DF1D83DF91CF911F9108951F93CF930E
S1130680DF93C0E2D6E018E01E83ABDF1D83DF9169
S1130690CF911F910895813039F018F0823039F0EC
S11306A0089581E869CF089582E866CF089584E8C3
S11306B063CF08951F93CF93DF93C0E4D6E010E196
S11306C01E83E9DF1D83DF91CF911F9108951F934E
S11306D0CF93DF93C0E6D6E010E11E83DCDF1D83F9
S11306E0DF91CF911F9108951F93CF93DF93C0E2C1
S11306F0D6E018E01E83CFDF1D83DF91CF911F91D9
S113070008950F931F93CF938B01880F805C34DF80
S1130710F801808191819695879596958795969510
S113072087952ADFF80180818295880F807E24DFF7
S113073080E022DF80E020DFF80182818F701CDFFF
S1130740F8018281882359F0C0E0F801EC0FF11D13
S1130750838112DFCF5FF8018281C817B0F3CF9194
S11307601F910F9108951F93CF93DF93C0E4D6E0B8
S113077010E11E83C6DF1D83DF91CF911F91089581
S11307801F93CF93DF93C0E6D6E010E11E83B9DF59
S11307901D83DF91CF911F9108951F93CF93DF9312
S11307A0C0E2D6E018E01E83ACDF1D83DF91CF9159
S11307B01F9108950F931F93CF93DF938B01DCDE7A
S11307C080E0DADE98E0899FE001112480E0D4DE45
S11307D0829586958770C82B80E0CEDE80E0CCDEE3
S11307E0F801C083D18380E0C7DE8F70F801828373
S11307F0882361F0C0E080E0BFDEF801EC0FF11D5A
S11308008383CF5FF8018281C817A8F381E0DF9169
S1130810CF911F910F9108951F93CF93DF93C0E45D
S1130820D6E010E11E83C6DF1D83DF91CF911F91B7
S113083008951F93CF93DF93C0E6D6E010E11E83A3
S1130840B9DF1D83DF91CF911F9108951F93CF933B
S1130850DF93C0E2D6E018E01E83ACDF1D83DF9196
S1130860CF911F910895413011F4D6CF08954230AD
S113087011F4DFCF0895433011F4E8CF089580E0F8
S113088008950F931F93CF93DF93082FC0E4D6E00E
S113089010E11E8383E070DE802F6EDE80E06CDE6C
S11308A01D83DF91CF911F910F9108950F931F9393
S11308B0CF93DF93082FC0E6D6E010E11E8383E0D8
S11308C05BDE802F59DE80E057DE1D83DF91CF9100
S11308D01F910F9108950F931F93CF93DF93082FC8
S11308E0C0E2D6E018E01E8383E046DE802F44DEBB
S11308F080E042DE1D83DF91CF911F910F91089517
S1130900613011F4BECF0895623011F4CFCF089551
S1130910E2CF0895FF920F931F93CF93DF93F82EA6
S1130920062FC0E4D6E010E11E8382E025DE8F2D81
S113093023DE802F21DE1D83DF91CF911F910F9144
S1130940FF900895FF920F931F93CF93DF93F82E98
S1130950062FC0E6D6E010E11E8382E00DDE8F2D67
S11309600BDE802F09DE1D83DF91CF911F910F9144
S1130970FF900895FF920F931F93CF93DF93F82E68
S1130980062FC0E2D6E018E01E8382E0F5DD8F2D4D
S1130990F3DD802FF1DD1D83DF91CF911F910F9146
S11309A0FF9008951F93CF93DF93E0E4F6E090EA7D
S11309B0918390E49283A0E6B6E092E011969C9332
S11309C011979093810698E0918320E121831196F9
S11309D02C939093210690ED9093C008662309F41C
S11309E07EC0C82F80E1809345068093650688E029
S11309F0809325068FE193E00197F1F700C0000092
S1130A00C6DDD3DDE0DD8FE39FE10197F1F700C0A0
S1130A1000008FE036DFD82F8FE048DF182F8FE0FB
S1130A205ADFD295D695D770D43009F05AC01295B2
S1130A3016951770143009F056C082958695877004
S1130A40843009F052C08FE193E00197F1F700C0C0
S1130A50000060E08AE25EDF60E08AE273DF60E06B
S1130A608AE288DF67EE89E255DF67EE89E26ADFB2
S1130A7067EE89E27FDF61E088E24CDF61E088E2D3
S1130A8061DF61E088E276DF44E064E080E6DCDD9B
S1130A9044E064E080E6E5DD44E064E080E6EEDD29
S1130AA063EA8BE237DF63EA8BE24CDF63EA8BE2D3
S1130AB061DF4C2F60EE8FE0C7DD4C2F60EE8FE0DE
S1130AC0D0DD4C2F60EE8FE0D9DD82E080936606A6
S1130AD08093860688E08093460681E007C081E023
S1130AE005C080E003C080E001C080E0DF91CF91C9
S1130AF01F910895413011F40DCF0895423011F43F
S1130B0021CF089537CF0895CF93DF93E0E5F0E048
S1130B10808182608083818181FFFDCFA0E5B0E088
S1130B2016968C911697846016968C931697C0E649
S1130B30D0E080E88D838BEB8E8380EC91E022E023
S1130B40FC012287EDE1F0E0E491EA83ECE1F0E0DE
S1130B50E491EB83FC01128681E08883E0E7F0E016
S1130B6085E1808383E0818394E5938393E5948393
S1130B7090E59583809321068BEC12968C931297C3
S1130B808C9188608C93E0E5F0E0818183FFFDCF58
S1130B90E0E5F0E082EC858380818061808381815F
S1130BA084FFFDCF88ED84BF34E030934000E0E063
S1130BB0FAE081E0808393E1918341E050E040A733
S1130BC051A746A357A380938106A0E4B6E093E01F
S1130BD019969C931997E0E6F6E02FE02187828727
S1130BE02BE1208B40E24387258B1A963C931A977E
S1130BF050962C93E0E4F8E0808320E83CE026A3C0
S1130C0037A39683E0E0F8E0808320E03DE726A365
S1130C1037A3968380932606C8E7D0E0888183FFB4
S1130C2004C061E080E0BEDE03C061E080E0BADEC3
S1130C3081110AC0FFEF29EF80E0F150204080408D
S1130C40E1F700C00000EACF25E888ED90E0A2EAD1
S1130C50B0E01BBEFD0184BF20832BBE80E0D9DB46
S1130C6093E088ED08B618BE84BF9093800080910D
S1130C70820081FDFCCF08BE7894DF91CF91089566
S1130C8043DFFFCF089508951F920F920FB60F927E
S1130C9011248F939F93A895809102209091032013
S1130CA001978093022090930320809100209091DB
S1130CB001208436910521F4109200201092012025
S1130CC08091022090910320892B19F482E0809373
S1130CD026069F918F910F900FBE0F901F9018952D
S1130CE090910820809109209817F1F080E3C9DDE4
S1130CF083FD1AC06091092081E0860F809309204A
S1130D008BE0689FB001112464517C4D80E02BDDA1
S1130D1080E0D0DC9091092080910820981304C0D1
S1130D2010920820109209200895EF92FF920F93D9
S1130D301F93CF93DF93CDB7DEB72B97CDBFDEBF25
S1130D40E982FA820B831C832D833E834F83588769
S1130D5069877A878B87A091082081E08A0F809326
S1130D6008209BE0A99FD0011124A451BC4D9BE015
S1130D70FE01319601900D929A95E1F7803118F0B9
S1130D808FE080930820ACDF2B96CDBFDEBFDF91D0
S1130D90CF911F910F91FF90EF90089590910620AD
S1130DA0809107209817F1F080E380DD83FD1AC05D
S1130DB06091072081E0860F809307208BE0689F75
S1130DC0B0011124645C7C4D80E0DADC80E07FDCDF
S1130DD09091072080910620981304C01092062059
S1130DE0109207200895EF92FF920F931F93CF93D1
S1130DF0DF93CDB7DEB72B97CDBFDEBFE982FA8292
S1130E000B831C832D833E834F83588769877A879E
S1130E108B87A091062081E08A0F809306209BE0B7
S1130E20A99FD0011124A45CBC4D9BE0FE01319626
S1130E3001900D929A95E1F7803118F08FE080933C
S1130E400620ACDF2B96CDBFDEBFDF91CF911F9183
S1130E500F91FF90EF900895CF92DF92EF92FF925F
S1130E600F931F93CF93DF93CDB7DEB72B97CDBFEF
S1130E70DEBFC82E682F8CE243DDD82E8370A9F123
S1130E80D1FE0CC04C2DBE016F5F7F4F84E9EBDCBB
S1130E902C2D40E062E08CE2B6DB0BC04C2DBE0191
S1130EA06F5F7F4F80E9DFDC2C2D40E061E08CE256
S1130EB0AADB81E0C8120DC0E980FA800B811C8195
S1130EC02D813E814F81588569857A858B858BDF9D
S1130ED00CC0E980FA800B811C812D813E814F81F9
S1130EE0588569857A858B8520DF8D2D807AB1F0D0
S1130EF06C2D8DE205DD182F807C21F04C2D60E0F7
S1130F008DE2F8DD112319F082E0809325066D2D22
S1130F10607E21F02C2D40E08CE275DB10920A20DB
S1130F202B96CDBFDEBFDF91CF911F910F91FF9024
S1130F30EF90DF90CF9008951F920F920FB60F920B
S1130F4011242F933F934F935F936F937F938F93CA
S1130F509F93AF93BF93EF93FF9381E080930A2015
S1130F607BDFFF91EF91BF91AF919F918F917F9123
S1130F706F915F914F913F912F910F900FBE0F9002
S1130F801F9018951F920F920FB60F9211242F9352
S1130F903F934F935F936F937F938F939F93AF93FD
S1130FA0BF93EF93FF9381E080930A2082E054DFA4
S1130FB0FF91EF91BF91AF919F918F917F916F912D
S1130FC05F914F913F912F910F900FBE0F901F9003
S1130FD018951F920F920FB60F9211242F933F93DF
S1130FE04F935F936F937F938F939F93AF93BF932D
S1130FF0EF93FF9381E080930A2083E02DDFFF913C
S1131000EF91BF91AF919F918F917F916F915F917C
S11310104F913F912F910F900FBE0F901F901895F5
S113102090910420809105209817F1F080E353DC1F
S113103083FD1AC06091052081E0860F809305200E
S11310408BE0689FB00111246B5F7C4D80E0A5DBD1
S113105080E04ADB9091052080910420981304C01D
S1131060109204201092052008951F920F920FB63B
S11310700F9211242F933F934F935F936F937F931A
S11310808F939F93AF93BF93EF93FF9329DE86DEF5
S1131090C7DFFF91EF91BF91AF919F918F917F91A6
S11310A06F915F914F913F912F910F900FBE0F90D1
S10B10B01F901895F894FFCF7E
S10710B8010001002E
S9030000FC
